{
  "contractName": "EventTicketing",
  "abi": [
    {
      "inputs": [],
      "stateMutability": "nonpayable",
      "type": "constructor"
    },
    {
      "anonymous": false,
      "inputs": [
        {
          "indexed": true,
          "internalType": "uint256",
          "name": "eventId",
          "type": "uint256"
        },
        {
          "indexed": true,
          "internalType": "address",
          "name": "organizer",
          "type": "address"
        }
      ],
      "name": "LogEventAdded",
      "type": "event"
    },
    {
      "anonymous": false,
      "inputs": [
        {
          "indexed": true,
          "internalType": "uint256",
          "name": "eventId",
          "type": "uint256"
        }
      ],
      "name": "LogEventStateUpdated",
      "type": "event"
    },
    {
      "anonymous": false,
      "inputs": [
        {
          "indexed": true,
          "internalType": "uint256",
          "name": "eventId",
          "type": "uint256"
        },
        {
          "indexed": true,
          "internalType": "address",
          "name": "attendee",
          "type": "address"
        }
      ],
      "name": "LogEventTicketPurchased",
      "type": "event"
    },
    {
      "anonymous": false,
      "inputs": [
        {
          "indexed": true,
          "internalType": "address",
          "name": "previousOwner",
          "type": "address"
        },
        {
          "indexed": true,
          "internalType": "address",
          "name": "newOwner",
          "type": "address"
        }
      ],
      "name": "OwnershipTransferred",
      "type": "event"
    },
    {
      "anonymous": false,
      "inputs": [
        {
          "indexed": true,
          "internalType": "bytes32",
          "name": "role",
          "type": "bytes32"
        },
        {
          "indexed": true,
          "internalType": "bytes32",
          "name": "previousAdminRole",
          "type": "bytes32"
        },
        {
          "indexed": true,
          "internalType": "bytes32",
          "name": "newAdminRole",
          "type": "bytes32"
        }
      ],
      "name": "RoleAdminChanged",
      "type": "event"
    },
    {
      "anonymous": false,
      "inputs": [
        {
          "indexed": true,
          "internalType": "bytes32",
          "name": "role",
          "type": "bytes32"
        },
        {
          "indexed": true,
          "internalType": "address",
          "name": "account",
          "type": "address"
        },
        {
          "indexed": true,
          "internalType": "address",
          "name": "sender",
          "type": "address"
        }
      ],
      "name": "RoleGranted",
      "type": "event"
    },
    {
      "anonymous": false,
      "inputs": [
        {
          "indexed": true,
          "internalType": "bytes32",
          "name": "role",
          "type": "bytes32"
        },
        {
          "indexed": true,
          "internalType": "address",
          "name": "account",
          "type": "address"
        },
        {
          "indexed": true,
          "internalType": "address",
          "name": "sender",
          "type": "address"
        }
      ],
      "name": "RoleRevoked",
      "type": "event"
    },
    {
      "inputs": [],
      "name": "DEFAULT_ADMIN_ROLE",
      "outputs": [
        {
          "internalType": "bytes32",
          "name": "",
          "type": "bytes32"
        }
      ],
      "stateMutability": "view",
      "type": "function",
      "constant": true
    },
    {
      "inputs": [
        {
          "internalType": "uint256",
          "name": "",
          "type": "uint256"
        }
      ],
      "name": "eventList",
      "outputs": [
        {
          "internalType": "uint256",
          "name": "eventId",
          "type": "uint256"
        },
        {
          "internalType": "uint256",
          "name": "capacity",
          "type": "uint256"
        },
        {
          "internalType": "uint256",
          "name": "totalAttendees",
          "type": "uint256"
        },
        {
          "internalType": "uint256",
          "name": "price",
          "type": "uint256"
        },
        {
          "internalType": "string",
          "name": "eventName",
          "type": "string"
        },
        {
          "internalType": "string",
          "name": "url",
          "type": "string"
        },
        {
          "internalType": "enum EventTicketing.State",
          "name": "status",
          "type": "uint8"
        },
        {
          "internalType": "address payable",
          "name": "creator",
          "type": "address"
        }
      ],
      "stateMutability": "view",
      "type": "function",
      "constant": true
    },
    {
      "inputs": [
        {
          "internalType": "uint256",
          "name": "",
          "type": "uint256"
        }
      ],
      "name": "eventRoles",
      "outputs": [
        {
          "internalType": "bytes32",
          "name": "",
          "type": "bytes32"
        }
      ],
      "stateMutability": "view",
      "type": "function",
      "constant": true
    },
    {
      "inputs": [
        {
          "internalType": "bytes32",
          "name": "role",
          "type": "bytes32"
        }
      ],
      "name": "getRoleAdmin",
      "outputs": [
        {
          "internalType": "bytes32",
          "name": "",
          "type": "bytes32"
        }
      ],
      "stateMutability": "view",
      "type": "function",
      "constant": true
    },
    {
      "inputs": [
        {
          "internalType": "bytes32",
          "name": "role",
          "type": "bytes32"
        },
        {
          "internalType": "address",
          "name": "account",
          "type": "address"
        }
      ],
      "name": "grantRole",
      "outputs": [],
      "stateMutability": "nonpayable",
      "type": "function"
    },
    {
      "inputs": [
        {
          "internalType": "bytes32",
          "name": "role",
          "type": "bytes32"
        },
        {
          "internalType": "address",
          "name": "account",
          "type": "address"
        }
      ],
      "name": "hasRole",
      "outputs": [
        {
          "internalType": "bool",
          "name": "",
          "type": "bool"
        }
      ],
      "stateMutability": "view",
      "type": "function",
      "constant": true
    },
    {
      "inputs": [],
      "name": "owner",
      "outputs": [
        {
          "internalType": "address",
          "name": "",
          "type": "address"
        }
      ],
      "stateMutability": "view",
      "type": "function",
      "constant": true
    },
    {
      "inputs": [],
      "name": "renounceOwnership",
      "outputs": [],
      "stateMutability": "nonpayable",
      "type": "function"
    },
    {
      "inputs": [
        {
          "internalType": "bytes32",
          "name": "role",
          "type": "bytes32"
        },
        {
          "internalType": "address",
          "name": "account",
          "type": "address"
        }
      ],
      "name": "renounceRole",
      "outputs": [],
      "stateMutability": "nonpayable",
      "type": "function"
    },
    {
      "inputs": [
        {
          "internalType": "bytes32",
          "name": "role",
          "type": "bytes32"
        },
        {
          "internalType": "address",
          "name": "account",
          "type": "address"
        }
      ],
      "name": "revokeRole",
      "outputs": [],
      "stateMutability": "nonpayable",
      "type": "function"
    },
    {
      "inputs": [
        {
          "internalType": "bytes4",
          "name": "interfaceId",
          "type": "bytes4"
        }
      ],
      "name": "supportsInterface",
      "outputs": [
        {
          "internalType": "bool",
          "name": "",
          "type": "bool"
        }
      ],
      "stateMutability": "view",
      "type": "function",
      "constant": true
    },
    {
      "inputs": [
        {
          "internalType": "address",
          "name": "newOwner",
          "type": "address"
        }
      ],
      "name": "transferOwnership",
      "outputs": [],
      "stateMutability": "nonpayable",
      "type": "function"
    },
    {
      "inputs": [],
      "name": "getTotalEventsCount",
      "outputs": [
        {
          "internalType": "uint256",
          "name": "",
          "type": "uint256"
        }
      ],
      "stateMutability": "view",
      "type": "function",
      "constant": true
    },
    {
      "inputs": [
        {
          "internalType": "uint256",
          "name": "_capacity",
          "type": "uint256"
        },
        {
          "internalType": "uint256",
          "name": "_price",
          "type": "uint256"
        },
        {
          "internalType": "string",
          "name": "_eventName",
          "type": "string"
        },
        {
          "internalType": "string",
          "name": "_url",
          "type": "string"
        }
      ],
      "name": "addToEventList",
      "outputs": [],
      "stateMutability": "nonpayable",
      "type": "function"
    },
    {
      "inputs": [
        {
          "internalType": "uint256",
          "name": "_eventId",
          "type": "uint256"
        }
      ],
      "name": "updateEventState",
      "outputs": [],
      "stateMutability": "nonpayable",
      "type": "function"
    },
    {
      "inputs": [
        {
          "internalType": "uint256",
          "name": "_eventId",
          "type": "uint256"
        },
        {
          "internalType": "address",
          "name": "_moderator",
          "type": "address"
        }
      ],
      "name": "addEventModerator",
      "outputs": [],
      "stateMutability": "nonpayable",
      "type": "function"
    },
    {
      "inputs": [
        {
          "internalType": "uint256",
          "name": "_eventId",
          "type": "uint256"
        }
      ],
      "name": "getEventInfo",
      "outputs": [
        {
          "internalType": "string",
          "name": "eventName",
          "type": "string"
        },
        {
          "internalType": "uint256",
          "name": "eventId",
          "type": "uint256"
        },
        {
          "internalType": "uint256",
          "name": "price",
          "type": "uint256"
        },
        {
          "internalType": "uint256",
          "name": "capacity",
          "type": "uint256"
        },
        {
          "internalType": "uint256",
          "name": "totalAttendees",
          "type": "uint256"
        },
        {
          "internalType": "uint256",
          "name": "state",
          "type": "uint256"
        },
        {
          "internalType": "string",
          "name": "url",
          "type": "string"
        },
        {
          "internalType": "address",
          "name": "creator",
          "type": "address"
        }
      ],
      "stateMutability": "view",
      "type": "function",
      "constant": true
    },
    {
      "inputs": [
        {
          "internalType": "uint256",
          "name": "_eventId",
          "type": "uint256"
        }
      ],
      "name": "buyEventTicket",
      "outputs": [],
      "stateMutability": "payable",
      "type": "function",
      "payable": true
    },
    {
      "inputs": [
        {
          "internalType": "uint256",
          "name": "_eventId",
          "type": "uint256"
        },
        {
          "internalType": "address",
          "name": "_attendee",
          "type": "address"
        }
      ],
      "name": "getAttendeeTicketStatus",
      "outputs": [
        {
          "internalType": "bool",
          "name": "",
          "type": "bool"
        }
      ],
      "stateMutability": "view",
      "type": "function",
      "constant": true
    },
    {
      "inputs": [],
      "name": "escrowBalance",
      "outputs": [
        {
          "internalType": "uint256",
          "name": "",
          "type": "uint256"
        }
      ],
      "stateMutability": "view",
      "type": "function",
      "constant": true
    },
    {
      "inputs": [],
      "name": "withdrawFromEscrow",
      "outputs": [],
      "stateMutability": "nonpayable",
      "type": "function"
    }
  ],
  "bytecode": "0x608060405260006003553480156200001657600080fd5b50620000376200002b620000a960201b60201c565b620000b160201b60201c565b604051620000459062000175565b604051809103906000f08015801562000062573d6000803e3d6000fd5b50600260006101000a81548173ffffffffffffffffffffffffffffffffffffffff021916908373ffffffffffffffffffffffffffffffffffffffff16021790555062000183565b600033905090565b60008060009054906101000a900473ffffffffffffffffffffffffffffffffffffffff169050816000806101000a81548173ffffffffffffffffffffffffffffffffffffffff021916908373ffffffffffffffffffffffffffffffffffffffff1602179055508173ffffffffffffffffffffffffffffffffffffffff168173ffffffffffffffffffffffffffffffffffffffff167f8be0079c531659141344cd1fd0a4f28419497f9722a3daafe3b4186f6b6457e060405160405180910390a35050565b610d168062002b4f83390190565b6129bc80620001936000396000f3fe60806040526004361061012a5760003560e01c806374a4ac63116100ab578063b725d6721161006f578063b725d67214610417578063d547741f1461042e578063dd0b4cd214610457578063e11e1b0c14610480578063eae9654d146104ab578063f2fde38b146104d45761012a565b806374a4ac631461032b5780638da5cb5b1461034757806391d1485414610372578063a217fddf146103af578063a8cfc9ea146103da5761012a565b806336568abe116100f257806336568abe1461023f578063412b33d414610268578063493280d2146102935780636d7cb6cf146102d7578063715018a6146103145761012a565b806301ffc9a71461012f578063081c22551461016c5780631d645b1214610195578063248a9ca3146101d95780632f2ff15d14610216575b600080fd5b34801561013b57600080fd5b5061015660048036038101906101519190611b94565b6104fd565b6040516101639190611bdc565b60405180910390f35b34801561017857600080fd5b50610193600480360381019061018e9190611c92565b610577565b005b3480156101a157600080fd5b506101bc60048036038101906101b79190611d39565b610719565b6040516101d0989796959493929190611e4f565b60405180910390f35b3480156101e557600080fd5b5061020060048036038101906101fb9190611f11565b610936565b60405161020d9190611f4d565b60405180910390f35b34801561022257600080fd5b5061023d60048036038101906102389190611f94565b610956565b005b34801561024b57600080fd5b5061026660048036038101906102619190611f94565b61097f565b005b34801561027457600080fd5b5061027d610a02565b60405161028a9190611fd4565b60405180910390f35b34801561029f57600080fd5b506102ba60048036038101906102b59190611d39565b610a0c565b6040516102ce989796959493929190612087565b60405180910390f35b3480156102e357600080fd5b506102fe60048036038101906102f99190611d39565b610b91565b60405161030b9190611f4d565b60405180910390f35b34801561032057600080fd5b50610329610ba9565b005b61034560048036038101906103409190611d39565b610c31565b005b34801561035357600080fd5b5061035c610f17565b6040516103699190612113565b60405180910390f35b34801561037e57600080fd5b5061039960048036038101906103949190611f94565b610f40565b6040516103a69190611bdc565b60405180910390f35b3480156103bb57600080fd5b506103c4610fab565b6040516103d19190611f4d565b60405180910390f35b3480156103e657600080fd5b5061040160048036038101906103fc919061212e565b610fb2565b60405161040e9190611bdc565b60405180910390f35b34801561042357600080fd5b5061042c61101d565b005b34801561043a57600080fd5b5061045560048036038101906104509190611f94565b61118a565b005b34801561046357600080fd5b5061047e6004803603810190610479919061212e565b6111b3565b005b34801561048c57600080fd5b5061049561127a565b6040516104a29190611fd4565b60405180910390f35b3480156104b757600080fd5b506104d260048036038101906104cd9190611d39565b61131d565b005b3480156104e057600080fd5b506104fb60048036038101906104f6919061216e565b6113b8565b005b60007f7965db0b000000000000000000000000000000000000000000000000000000007bffffffffffffffffffffffffffffffffffffffffffffffffffffffff1916827bffffffffffffffffffffffffffffffffffffffffffffffffffffffff19161480610570575061056f826114b0565b5b9050919050565b60016003600082825461058a91906121ca565b925050819055506000600460006003548152602001908152602001600020905060035481600001819055508681600101819055506000816002018190555085816004018190555084848260050191906105e4929190611a8f565b5082828260060191906105f8929190611a8f565b5060008160070160006101000a81548160ff0219169083600181111561062157610620611fef565b5b0217905550338160070160016101000a81548173ffffffffffffffffffffffffffffffffffffffff021916908373ffffffffffffffffffffffffffffffffffffffff16021790555060035460405160200161067c9190612241565b60405160208183030381529060405280519060200120600560006003548152602001908152602001600020819055506106ca600560006003548152602001908152602001600020543361151a565b3373ffffffffffffffffffffffffffffffffffffffff166003547fc98529dbb67e8530f83a714808cf7a8540172c1fc08f07735670b4ed2ee71bf460405160405180910390a350505050505050565b6060600080600080600060606000600460008a815260200190815260200160002060050180546107489061228b565b80601f01602080910402602001604051908101604052809291908181526020018280546107749061228b565b80156107c15780601f10610796576101008083540402835291602001916107c1565b820191906000526020600020905b8154815290600101906020018083116107a457829003601f168201915b50505050509750889650600460008a8152602001908152602001600020600401549550600460008a8152602001908152602001600020600101549450600460008a8152602001908152602001600020600201549350600460008a815260200190815260200160002060070160009054906101000a900460ff16600181111561084c5761084b611fef565b5b60ff169250600460008a815260200190815260200160002060060180546108729061228b565b80601f016020809104026020016040519081016040528092919081815260200182805461089e9061228b565b80156108eb5780601f106108c0576101008083540402835291602001916108eb565b820191906000526020600020905b8154815290600101906020018083116108ce57829003601f168201915b50505050509150600460008a815260200190815260200160002060070160019054906101000a900473ffffffffffffffffffffffffffffffffffffffff169050919395975091939597565b600060016000838152602001908152602001600020600101549050919050565b61095f82610936565b6109708161096b611528565b611530565b61097a83836115cd565b505050565b610987611528565b73ffffffffffffffffffffffffffffffffffffffff168173ffffffffffffffffffffffffffffffffffffffff16146109f4576040517f08c379a00000000000000000000000000000000000000000000000000000000081526004016109eb9061232f565b60405180910390fd5b6109fe82826116ad565b5050565b6000600354905090565b6004602052806000526040600020600091509050806000015490806001015490806002015490806004015490806005018054610a479061228b565b80601f0160208091040260200160405190810160405280929190818152602001828054610a739061228b565b8015610ac05780601f10610a9557610100808354040283529160200191610ac0565b820191906000526020600020905b815481529060010190602001808311610aa357829003601f168201915b505050505090806006018054610ad59061228b565b80601f0160208091040260200160405190810160405280929190818152602001828054610b019061228b565b8015610b4e5780601f10610b2357610100808354040283529160200191610b4e565b820191906000526020600020905b815481529060010190602001808311610b3157829003601f168201915b5050505050908060070160009054906101000a900460ff16908060070160019054906101000a900473ffffffffffffffffffffffffffffffffffffffff16905088565b60056020528060005260406000206000915090505481565b610bb1611528565b73ffffffffffffffffffffffffffffffffffffffff16610bcf610f17565b73ffffffffffffffffffffffffffffffffffffffff1614610c25576040517f08c379a0000000000000000000000000000000000000000000000000000000008152600401610c1c9061239b565b60405180910390fd5b610c2f600061178f565b565b806004600082815260200190815260200160002060020154600460008381526020019081526020016000206001015411610ca0576040517f08c379a0000000000000000000000000000000000000000000000000000000008152600401610c9790612407565b60405180910390fd5b8180341015610ce4576040517f08c379a0000000000000000000000000000000000000000000000000000000008152600401610cdb90612473565b60405180910390fd5b82600260009054906101000a900473ffffffffffffffffffffffffffffffffffffffff1673ffffffffffffffffffffffffffffffffffffffff1663f340fa0160046000878152602001908152602001600020600401546004600088815260200190815260200160002060070160019054906101000a900473ffffffffffffffffffffffffffffffffffffffff166040518363ffffffff1660e01b8152600401610d8d91906124f2565b6000604051808303818588803b158015610da657600080fd5b505af1158015610dba573d6000803e3d6000fd5b505050505060016004600086815260200190815260200160002060030160003373ffffffffffffffffffffffffffffffffffffffff1673ffffffffffffffffffffffffffffffffffffffff16815260200190815260200160002060006101000a81548160ff0219169083151502179055506001600460008681526020019081526020016000206002016000828254610e5291906121ca565b925050819055503373ffffffffffffffffffffffffffffffffffffffff16847f10ec4c0b8b262f1127a035322950e63c9a7b822336ae17feea0959747cfb063b60405160405180910390a360006004600083815260200190815260200160002060040154905060008134610ec6919061250d565b90503373ffffffffffffffffffffffffffffffffffffffff166108fc829081150290604051600060405180830381858888f19350505050158015610f0e573d6000803e3d6000fd5b50505050505050565b60008060009054906101000a900473ffffffffffffffffffffffffffffffffffffffff16905090565b60006001600084815260200190815260200160002060000160008373ffffffffffffffffffffffffffffffffffffffff1673ffffffffffffffffffffffffffffffffffffffff16815260200190815260200160002060009054906101000a900460ff16905092915050565b6000801b81565b60006004600084815260200190815260200160002060030160008373ffffffffffffffffffffffffffffffffffffffff1673ffffffffffffffffffffffffffffffffffffffff16815260200190815260200160002060009054906101000a900460ff16905092915050565b6000600260009054906101000a900473ffffffffffffffffffffffffffffffffffffffff1673ffffffffffffffffffffffffffffffffffffffff1663e3a9db1a336040518263ffffffff1660e01b815260040161107a9190612113565b602060405180830381865afa158015611097573d6000803e3d6000fd5b505050506040513d601f19601f820116820180604052508101906110bb9190612556565b116110fb576040517f08c379a00000000000000000000000000000000000000000000000000000000081526004016110f2906125cf565b60405180910390fd5b600260009054906101000a900473ffffffffffffffffffffffffffffffffffffffff1673ffffffffffffffffffffffffffffffffffffffff166351cff8d9336040518263ffffffff1660e01b815260040161115691906125ef565b600060405180830381600087803b15801561117057600080fd5b505af1158015611184573d6000803e3d6000fd5b50505050565b61119382610936565b6111a48161119f611528565b611530565b6111ae83836116ad565b505050565b813373ffffffffffffffffffffffffffffffffffffffff166004600083815260200190815260200160002060070160019054906101000a900473ffffffffffffffffffffffffffffffffffffffff1673ffffffffffffffffffffffffffffffffffffffff1614611258576040517f08c379a000000000000000000000000000000000000000000000000000000000815260040161124f90612656565b60405180910390fd5b61127560056000858152602001908152602001600020548361151a565b505050565b6000600260009054906101000a900473ffffffffffffffffffffffffffffffffffffffff1673ffffffffffffffffffffffffffffffffffffffff1663e3a9db1a336040518263ffffffff1660e01b81526004016112d79190612113565b602060405180830381865afa1580156112f4573d6000803e3d6000fd5b505050506040513d601f19601f820116820180604052508101906113189190612556565b905090565b60056000828152602001908152602001600020546113428161133d611528565b611530565b600060046000848152602001908152602001600020905060018160070160006101000a81548160ff0219169083600181111561138157611380611fef565b5b0217905550827faefdbf6071eebc7775079e508a552b7135e1ca609dd7be5223f6c4bf72d5ccd660405160405180910390a2505050565b6113c0611528565b73ffffffffffffffffffffffffffffffffffffffff166113de610f17565b73ffffffffffffffffffffffffffffffffffffffff1614611434576040517f08c379a000000000000000000000000000000000000000000000000000000000815260040161142b9061239b565b60405180910390fd5b600073ffffffffffffffffffffffffffffffffffffffff168173ffffffffffffffffffffffffffffffffffffffff1614156114a4576040517f08c379a000000000000000000000000000000000000000000000000000000000815260040161149b906126e8565b60405180910390fd5b6114ad8161178f565b50565b60007f01ffc9a7000000000000000000000000000000000000000000000000000000007bffffffffffffffffffffffffffffffffffffffffffffffffffffffff1916827bffffffffffffffffffffffffffffffffffffffffffffffffffffffff1916149050919050565b61152482826115cd565b5050565b600033905090565b61153a8282610f40565b6115c95761155f8173ffffffffffffffffffffffffffffffffffffffff166014611853565b61156d8360001c6020611853565b60405160200161157e9291906127dc565b6040516020818303038152906040526040517f08c379a00000000000000000000000000000000000000000000000000000000081526004016115c09190612816565b60405180910390fd5b5050565b6115d78282610f40565b6116a957600180600084815260200190815260200160002060000160008373ffffffffffffffffffffffffffffffffffffffff1673ffffffffffffffffffffffffffffffffffffffff16815260200190815260200160002060006101000a81548160ff02191690831515021790555061164e611528565b73ffffffffffffffffffffffffffffffffffffffff168173ffffffffffffffffffffffffffffffffffffffff16837f2f8788117e7eff1d82e926ec794901d17c78024a50270940304540a733656f0d60405160405180910390a45b5050565b6116b78282610f40565b1561178b5760006001600084815260200190815260200160002060000160008373ffffffffffffffffffffffffffffffffffffffff1673ffffffffffffffffffffffffffffffffffffffff16815260200190815260200160002060006101000a81548160ff021916908315150217905550611730611528565b73ffffffffffffffffffffffffffffffffffffffff168173ffffffffffffffffffffffffffffffffffffffff16837ff6391f5c32d9c69d2a47ea670b442974b53935d1edc7fd64eb21e047a839171b60405160405180910390a45b5050565b60008060009054906101000a900473ffffffffffffffffffffffffffffffffffffffff169050816000806101000a81548173ffffffffffffffffffffffffffffffffffffffff021916908373ffffffffffffffffffffffffffffffffffffffff1602179055508173ffffffffffffffffffffffffffffffffffffffff168173ffffffffffffffffffffffffffffffffffffffff167f8be0079c531659141344cd1fd0a4f28419497f9722a3daafe3b4186f6b6457e060405160405180910390a35050565b6060600060028360026118669190612838565b61187091906121ca565b67ffffffffffffffff81111561188957611888612892565b5b6040519080825280601f01601f1916602001820160405280156118bb5781602001600182028036833780820191505090505b5090507f3000000000000000000000000000000000000000000000000000000000000000816000815181106118f3576118f26128c1565b5b60200101907effffffffffffffffffffffffffffffffffffffffffffffffffffffffffffff1916908160001a9053507f780000000000000000000000000000000000000000000000000000000000000081600181518110611957576119566128c1565b5b60200101907effffffffffffffffffffffffffffffffffffffffffffffffffffffffffffff1916908160001a905350600060018460026119979190612838565b6119a191906121ca565b90505b6001811115611a41577f3031323334353637383961626364656600000000000000000000000000000000600f8616601081106119e3576119e26128c1565b5b1a60f81b8282815181106119fa576119f96128c1565b5b60200101907effffffffffffffffffffffffffffffffffffffffffffffffffffffffffffff1916908160001a905350600485901c945080611a3a906128f0565b90506119a4565b5060008414611a85576040517f08c379a0000000000000000000000000000000000000000000000000000000008152600401611a7c90612966565b60405180910390fd5b8091505092915050565b828054611a9b9061228b565b90600052602060002090601f016020900481019282611abd5760008555611b04565b82601f10611ad657803560ff1916838001178555611b04565b82800160010185558215611b04579182015b82811115611b03578235825591602001919060010190611ae8565b5b509050611b119190611b15565b5090565b5b80821115611b2e576000816000905550600101611b16565b5090565b600080fd5b600080fd5b60007fffffffff0000000000000000000000000000000000000000000000000000000082169050919050565b611b7181611b3c565b8114611b7c57600080fd5b50565b600081359050611b8e81611b68565b92915050565b600060208284031215611baa57611ba9611b32565b5b6000611bb884828501611b7f565b91505092915050565b60008115159050919050565b611bd681611bc1565b82525050565b6000602082019050611bf16000830184611bcd565b92915050565b6000819050919050565b611c0a81611bf7565b8114611c1557600080fd5b50565b600081359050611c2781611c01565b92915050565b600080fd5b600080fd5b600080fd5b60008083601f840112611c5257611c51611c2d565b5b8235905067ffffffffffffffff811115611c6f57611c6e611c32565b5b602083019150836001820283011115611c8b57611c8a611c37565b5b9250929050565b60008060008060008060808789031215611caf57611cae611b32565b5b6000611cbd89828a01611c18565b9650506020611cce89828a01611c18565b955050604087013567ffffffffffffffff811115611cef57611cee611b37565b5b611cfb89828a01611c3c565b9450945050606087013567ffffffffffffffff811115611d1e57611d1d611b37565b5b611d2a89828a01611c3c565b92509250509295509295509295565b600060208284031215611d4f57611d4e611b32565b5b6000611d5d84828501611c18565b91505092915050565b600081519050919050565b600082825260208201905092915050565b60005b83811015611da0578082015181840152602081019050611d85565b83811115611daf576000848401525b50505050565b6000601f19601f8301169050919050565b6000611dd182611d66565b611ddb8185611d71565b9350611deb818560208601611d82565b611df481611db5565b840191505092915050565b611e0881611bf7565b82525050565b600073ffffffffffffffffffffffffffffffffffffffff82169050919050565b6000611e3982611e0e565b9050919050565b611e4981611e2e565b82525050565b6000610100820190508181036000830152611e6a818b611dc6565b9050611e79602083018a611dff565b611e866040830189611dff565b611e936060830188611dff565b611ea06080830187611dff565b611ead60a0830186611dff565b81810360c0830152611ebf8185611dc6565b9050611ece60e0830184611e40565b9998505050505050505050565b6000819050919050565b611eee81611edb565b8114611ef957600080fd5b50565b600081359050611f0b81611ee5565b92915050565b600060208284031215611f2757611f26611b32565b5b6000611f3584828501611efc565b91505092915050565b611f4781611edb565b82525050565b6000602082019050611f626000830184611f3e565b92915050565b611f7181611e2e565b8114611f7c57600080fd5b50565b600081359050611f8e81611f68565b92915050565b60008060408385031215611fab57611faa611b32565b5b6000611fb985828601611efc565b9250506020611fca85828601611f7f565b9150509250929050565b6000602082019050611fe96000830184611dff565b92915050565b7f4e487b7100000000000000000000000000000000000000000000000000000000600052602160045260246000fd5b6002811061202f5761202e611fef565b5b50565b60008190506120408261201e565b919050565b600061205082612032565b9050919050565b61206081612045565b82525050565b600061207182611e0e565b9050919050565b61208181612066565b82525050565b60006101008201905061209d600083018b611dff565b6120aa602083018a611dff565b6120b76040830189611dff565b6120c46060830188611dff565b81810360808301526120d68187611dc6565b905081810360a08301526120ea8186611dc6565b90506120f960c0830185612057565b61210660e0830184612078565b9998505050505050505050565b60006020820190506121286000830184611e40565b92915050565b6000806040838503121561214557612144611b32565b5b600061215385828601611c18565b925050602061216485828601611f7f565b9150509250929050565b60006020828403121561218457612183611b32565b5b600061219284828501611f7f565b91505092915050565b7f4e487b7100000000000000000000000000000000000000000000000000000000600052601160045260246000fd5b60006121d582611bf7565b91506121e083611bf7565b9250827fffffffffffffffffffffffffffffffffffffffffffffffffffffffffffffffff038211156122155761221461219b565b5b828201905092915050565b6000819050919050565b61223b61223682611bf7565b612220565b82525050565b600061224d828461222a565b60208201915081905092915050565b7f4e487b7100000000000000000000000000000000000000000000000000000000600052602260045260246000fd5b600060028204905060018216806122a357607f821691505b602082108114156122b7576122b661225c565b5b50919050565b7f416363657373436f6e74726f6c3a2063616e206f6e6c792072656e6f756e636560008201527f20726f6c657320666f722073656c660000000000000000000000000000000000602082015250565b6000612319602f83611d71565b9150612324826122bd565b604082019050919050565b600060208201905081810360008301526123488161230c565b9050919050565b7f4f776e61626c653a2063616c6c6572206973206e6f7420746865206f776e6572600082015250565b6000612385602083611d71565b91506123908261234f565b602082019050919050565b600060208201905081810360008301526123b481612378565b9050919050565b7f534f4c445f4f5554000000000000000000000000000000000000000000000000600082015250565b60006123f1600883611d71565b91506123fc826123bb565b602082019050919050565b60006020820190508181036000830152612420816123e4565b9050919050565b7f494e53554646494349454e545f414d4f554e5400000000000000000000000000600082015250565b600061245d601383611d71565b915061246882612427565b602082019050919050565b6000602082019050818103600083015261248c81612450565b9050919050565b6000819050919050565b60006124b86124b36124ae84611e0e565b612493565b611e0e565b9050919050565b60006124ca8261249d565b9050919050565b60006124dc826124bf565b9050919050565b6124ec816124d1565b82525050565b600060208201905061250760008301846124e3565b92915050565b600061251882611bf7565b915061252383611bf7565b9250828210156125365761253561219b565b5b828203905092915050565b60008151905061255081611c01565b92915050565b60006020828403121561256c5761256b611b32565b5b600061257a84828501612541565b91505092915050565b7f4e4f5f4445504f53495400000000000000000000000000000000000000000000600082015250565b60006125b9600a83611d71565b91506125c482612583565b602082019050919050565b600060208201905081810360008301526125e8816125ac565b9050919050565b60006020820190506126046000830184612078565b92915050565b7f41444d494e5f4f4e4c5900000000000000000000000000000000000000000000600082015250565b6000612640600a83611d71565b915061264b8261260a565b602082019050919050565b6000602082019050818103600083015261266f81612633565b9050919050565b7f4f776e61626c653a206e6577206f776e657220697320746865207a65726f206160008201527f6464726573730000000000000000000000000000000000000000000000000000602082015250565b60006126d2602683611d71565b91506126dd82612676565b604082019050919050565b60006020820190508181036000830152612701816126c5565b9050919050565b600081905092915050565b7f416363657373436f6e74726f6c3a206163636f756e7420000000000000000000600082015250565b6000612749601783612708565b915061275482612713565b601782019050919050565b600061276a82611d66565b6127748185612708565b9350612784818560208601611d82565b80840191505092915050565b7f206973206d697373696e6720726f6c6520000000000000000000000000000000600082015250565b60006127c6601183612708565b91506127d182612790565b601182019050919050565b60006127e78261273c565b91506127f3828561275f565b91506127fe826127b9565b915061280a828461275f565b91508190509392505050565b600060208201905081810360008301526128308184611dc6565b905092915050565b600061284382611bf7565b915061284e83611bf7565b9250817fffffffffffffffffffffffffffffffffffffffffffffffffffffffffffffffff04831182151516156128875761288661219b565b5b828202905092915050565b7f4e487b7100000000000000000000000000000000000000000000000000000000600052604160045260246000fd5b7f4e487b7100000000000000000000000000000000000000000000000000000000600052603260045260246000fd5b60006128fb82611bf7565b9150600082141561290f5761290e61219b565b5b600182039050919050565b7f537472696e67733a20686578206c656e67746820696e73756666696369656e74600082015250565b6000612950602083611d71565b915061295b8261291a565b602082019050919050565b6000602082019050818103600083015261297f81612943565b905091905056fea26469706673582212202db6ce6c8694bebf335d94e56fe7faac4987e4aa9670530565b7df2504dfb5d864736f6c634300080a0033608060405234801561001057600080fd5b5061002d61002261003260201b60201c565b61003a60201b60201c565b6100fe565b600033905090565b60008060009054906101000a900473ffffffffffffffffffffffffffffffffffffffff169050816000806101000a81548173ffffffffffffffffffffffffffffffffffffffff021916908373ffffffffffffffffffffffffffffffffffffffff1602179055508173ffffffffffffffffffffffffffffffffffffffff168173ffffffffffffffffffffffffffffffffffffffff167f8be0079c531659141344cd1fd0a4f28419497f9722a3daafe3b4186f6b6457e060405160405180910390a35050565b610c098061010d6000396000f3fe6080604052600436106100555760003560e01c806351cff8d91461005a578063715018a6146100835780638da5cb5b1461009a578063e3a9db1a146100c5578063f2fde38b14610102578063f340fa011461012b575b600080fd5b34801561006657600080fd5b50610081600480360381019061007c9190610805565b610147565b005b34801561008f57600080fd5b506100986102c7565b005b3480156100a657600080fd5b506100af61034f565b6040516100bc9190610853565b60405180910390f35b3480156100d157600080fd5b506100ec60048036038101906100e7919061089a565b610378565b6040516100f991906108e0565b60405180910390f35b34801561010e57600080fd5b506101296004803603810190610124919061089a565b6103c1565b005b6101456004803603810190610140919061089a565b6104b9565b005b61014f6105e2565b73ffffffffffffffffffffffffffffffffffffffff1661016d61034f565b73ffffffffffffffffffffffffffffffffffffffff16146101c3576040517f08c379a00000000000000000000000000000000000000000000000000000000081526004016101ba90610958565b60405180910390fd5b6000600160008373ffffffffffffffffffffffffffffffffffffffff1673ffffffffffffffffffffffffffffffffffffffff1681526020019081526020016000205490506000600160008473ffffffffffffffffffffffffffffffffffffffff1673ffffffffffffffffffffffffffffffffffffffff16815260200190815260200160002081905550610275818373ffffffffffffffffffffffffffffffffffffffff166105ea90919063ffffffff16565b8173ffffffffffffffffffffffffffffffffffffffff167f7084f5476618d8e60b11ef0d7d3f06914655adb8793e28ff7f018d4c76d505d5826040516102bb91906108e0565b60405180910390a25050565b6102cf6105e2565b73ffffffffffffffffffffffffffffffffffffffff166102ed61034f565b73ffffffffffffffffffffffffffffffffffffffff1614610343576040517f08c379a000000000000000000000000000000000000000000000000000000000815260040161033a90610958565b60405180910390fd5b61034d60006106de565b565b60008060009054906101000a900473ffffffffffffffffffffffffffffffffffffffff16905090565b6000600160008373ffffffffffffffffffffffffffffffffffffffff1673ffffffffffffffffffffffffffffffffffffffff168152602001908152602001600020549050919050565b6103c96105e2565b73ffffffffffffffffffffffffffffffffffffffff166103e761034f565b73ffffffffffffffffffffffffffffffffffffffff161461043d576040517f08c379a000000000000000000000000000000000000000000000000000000000815260040161043490610958565b60405180910390fd5b600073ffffffffffffffffffffffffffffffffffffffff168173ffffffffffffffffffffffffffffffffffffffff1614156104ad576040517f08c379a00000000000000000000000000000000000000000000000000000000081526004016104a4906109ea565b60405180910390fd5b6104b6816106de565b50565b6104c16105e2565b73ffffffffffffffffffffffffffffffffffffffff166104df61034f565b73ffffffffffffffffffffffffffffffffffffffff1614610535576040517f08c379a000000000000000000000000000000000000000000000000000000000815260040161052c90610958565b60405180910390fd5b600034905080600160008473ffffffffffffffffffffffffffffffffffffffff1673ffffffffffffffffffffffffffffffffffffffff16815260200190815260200160002060008282546105899190610a39565b925050819055508173ffffffffffffffffffffffffffffffffffffffff167f2da466a7b24304f47e87fa2e1e5a81b9831ce54fec19055ce277ca2f39ba42c4826040516105d691906108e0565b60405180910390a25050565b600033905090565b8047101561062d576040517f08c379a000000000000000000000000000000000000000000000000000000000815260040161062490610adb565b60405180910390fd5b60008273ffffffffffffffffffffffffffffffffffffffff168260405161065390610b2c565b60006040518083038185875af1925050503d8060008114610690576040519150601f19603f3d011682016040523d82523d6000602084013e610695565b606091505b50509050806106d9576040517f08c379a00000000000000000000000000000000000000000000000000000000081526004016106d090610bb3565b60405180910390fd5b505050565b60008060009054906101000a900473ffffffffffffffffffffffffffffffffffffffff169050816000806101000a81548173ffffffffffffffffffffffffffffffffffffffff021916908373ffffffffffffffffffffffffffffffffffffffff1602179055508173ffffffffffffffffffffffffffffffffffffffff168173ffffffffffffffffffffffffffffffffffffffff167f8be0079c531659141344cd1fd0a4f28419497f9722a3daafe3b4186f6b6457e060405160405180910390a35050565b600080fd5b600073ffffffffffffffffffffffffffffffffffffffff82169050919050565b60006107d2826107a7565b9050919050565b6107e2816107c7565b81146107ed57600080fd5b50565b6000813590506107ff816107d9565b92915050565b60006020828403121561081b5761081a6107a2565b5b6000610829848285016107f0565b91505092915050565b600061083d826107a7565b9050919050565b61084d81610832565b82525050565b60006020820190506108686000830184610844565b92915050565b61087781610832565b811461088257600080fd5b50565b6000813590506108948161086e565b92915050565b6000602082840312156108b0576108af6107a2565b5b60006108be84828501610885565b91505092915050565b6000819050919050565b6108da816108c7565b82525050565b60006020820190506108f560008301846108d1565b92915050565b600082825260208201905092915050565b7f4f776e61626c653a2063616c6c6572206973206e6f7420746865206f776e6572600082015250565b60006109426020836108fb565b915061094d8261090c565b602082019050919050565b6000602082019050818103600083015261097181610935565b9050919050565b7f4f776e61626c653a206e6577206f776e657220697320746865207a65726f206160008201527f6464726573730000000000000000000000000000000000000000000000000000602082015250565b60006109d46026836108fb565b91506109df82610978565b604082019050919050565b60006020820190508181036000830152610a03816109c7565b9050919050565b7f4e487b7100000000000000000000000000000000000000000000000000000000600052601160045260246000fd5b6000610a44826108c7565b9150610a4f836108c7565b9250827fffffffffffffffffffffffffffffffffffffffffffffffffffffffffffffffff03821115610a8457610a83610a0a565b5b828201905092915050565b7f416464726573733a20696e73756666696369656e742062616c616e6365000000600082015250565b6000610ac5601d836108fb565b9150610ad082610a8f565b602082019050919050565b60006020820190508181036000830152610af481610ab8565b9050919050565b600081905092915050565b50565b6000610b16600083610afb565b9150610b2182610b06565b600082019050919050565b6000610b3782610b09565b9150819050919050565b7f416464726573733a20756e61626c6520746f2073656e642076616c75652c207260008201527f6563697069656e74206d61792068617665207265766572746564000000000000602082015250565b6000610b9d603a836108fb565b9150610ba882610b41565b604082019050919050565b60006020820190508181036000830152610bcc81610b90565b905091905056fea2646970667358221220308bb84cc138adf674c42bc1625f7d811e0d2ff7cdf8a05f098dfbe2b344a35864736f6c634300080a0033",
  "immutableReferences": {},
  "source": "// SPDX-License-Identifier: MIT\npragma solidity >=0.5.16 <0.9.0;\n\nimport \"@openzeppelin/contracts/access/Ownable.sol\";\nimport \"@openzeppelin/contracts/access/AccessControl.sol\";\nimport \"@openzeppelin/contracts/utils/escrow/Escrow.sol\";\nimport \"@openzeppelin/contracts/utils/math/SafeMath.sol\";\nimport \"@openzeppelin/contracts/utils/Strings.sol\";\n\n/// @title Contract for decentralized event ticketing\n/// @author Victor Adeleke\n/// @notice Allows event organizer(s) to sell event tickets.\ncontract EventTicketing is Ownable, AccessControl {\n  using SafeMath for uint256;\n\n  /// @notice Emitted when an organizer creates an event.\n  /// @param eventId Event's id\n  /// @param organizer organizer's address\n  event LogEventAdded(uint256 indexed eventId, address indexed organizer);\n\n  /// @notice Emitted when a moderator updates the state of an event\n  /// @param eventId Event's id\n  event LogEventStateUpdated(uint256 indexed eventId);\n\n  /// @notice Emitted when an attendee purchases an event ticket.\n  /// @param eventId Event's id\n  /// @param attendee attendee's address\n  event LogEventTicketPurchased(uint256 indexed eventId, address indexed attendee);\n\n  /// @dev creates an instance of excrow\n  Escrow escrow;\n\n  /// @dev Keeps count of events.\n  uint256 private eventsCounter = 0;\n\n  /// @dev Enum of states of an event\n  enum State { StartingSoon, Ended }\n\n  /// @dev struct of info for an event\n  struct EventInfo {\n    uint256 eventId;\n    uint256 capacity;\n    uint256 totalAttendees;\n    mapping (address => bool) attendees;\n    uint256 price;\n    string eventName;\n    string url;\n    State status;\n    address payable creator;\n  }\n\n  mapping (uint256 => EventInfo) public eventList;\n\n  mapping (uint256 => bytes32) public eventRoles;\n\n  /// @dev checks that event creators have deposit in escrow\n  modifier hasDeposits() {\n    require (escrow.depositsOf(msg.sender) > 0, 'NO_DEPOSIT');\n    _;\n  }\n\n  /// @dev checks that tickets can still be booked for an event\n  /// @param _eventId id of the event to check availability\n  modifier isTicketAvailable(uint256 _eventId) {\n    require(eventList[_eventId].capacity > eventList[_eventId].totalAttendees, 'SOLD_OUT');\n    _;\n  }\n\n  /// @dev checks that event caller is the creator of the event\n  /// @param _eventId id of the event to be check\n  modifier isEventAdmin(uint256 _eventId) {\n    require(eventList[_eventId].creator == msg.sender, 'ADMIN_ONLY');\n    _;\n  }\n\n  /// @dev checks that attendee is paying enough to cover cost of event ticket\n  /// @param _price cost of event ticket\n  modifier paidEnough(uint256 _price) {\n    require(msg.value >= _price, 'INSUFFICIENT_AMOUNT');\n    _;\n  }\n\n  /// @dev does refund for cases where attendee pay more than cost of event ticket\n  /// @param _eventId id of the event to check for ticket cost\n  modifier checkValue(uint256 _eventId) {\n    //refund them after pay for ticket\n    _;\n    uint256 _price = eventList[_eventId].price;\n    uint256 amountToRefund = msg.value - _price;\n    payable(msg.sender).transfer(amountToRefund);\n  }\n\n  constructor() {\n    escrow = new Escrow();\n  }\n\n  /// @notice To know the total number of events created through this contract\n  /// @return total number of events created so far.\n  function getTotalEventsCount() public view returns (uint256) {\n    return eventsCounter;\n  }\n\n  /// @notice add an event info\n  /// @param _capacity allowed capacity for event\n  /// @param _price cost of event ticket\n  /// @param _eventName name of event being created\n  /// @param _url http link containing detailed info about event\n  function addToEventList(uint256 _capacity, uint256 _price, string calldata _eventName, string calldata _url) public {\n    eventsCounter += 1;\n    EventInfo storage eInfo = eventList[eventsCounter];\n    eInfo.eventId = eventsCounter;\n    eInfo.capacity = _capacity;\n    eInfo.totalAttendees = 0;\n    eInfo.price = _price;\n    eInfo.eventName = _eventName;\n    eInfo.url = _url;\n    eInfo.status = State.StartingSoon;\n    eInfo.creator = payable(msg.sender);\n\n    eventRoles[eventsCounter] = keccak256(abi.encodePacked((eventsCounter)));\n\n    _setupRole(eventRoles[eventsCounter], msg.sender);\n\n    emit LogEventAdded(eventsCounter, msg.sender);\n  }\n\n  /// @notice update an event state\n  /// @param _eventId id of the event to be updated\n  function updateEventState(uint256 _eventId) public onlyRole(eventRoles[_eventId]) {\n    EventInfo storage eInfo = eventList[_eventId];\n    eInfo.status = State.Ended;\n\n    emit LogEventStateUpdated(_eventId);\n  }\n\n  /// @notice add an event info\n  /// @param _eventId id of the event that will have a new moderator\n  /// @param _moderator address of new moderator to be added\n  function addEventModerator(uint256 _eventId, address _moderator) public isEventAdmin(_eventId) {\n    _setupRole(eventRoles[_eventId], _moderator);\n  }\n\n  /// @notice get info about a particular event\n  /// @param _eventId id of event to get info about\n  /// @return eventName name of event\n  /// @return eventId id of event\n  /// @return price cost of event ticket\n  /// @return capacity number of attendees registered attendees sofar\n  /// @return totalAttendees number of allowed attendees\n  /// @return state the state of the event\n  /// @return url http link containing detailed info about event\n  /// @return creator the address of the account that created this event\n  function getEventInfo(uint256 _eventId) public view\n  returns (string memory eventName, uint256 eventId, uint256 price, uint256 capacity, uint256 totalAttendees, uint256 state, string memory url, address creator)\n  {\n  eventName = eventList[_eventId].eventName;\n  eventId = _eventId;\n  price = eventList[_eventId].price;\n  capacity = eventList[_eventId].capacity;\n  totalAttendees = eventList[_eventId].totalAttendees;\n  state = uint8(eventList[_eventId].status);\n  url = eventList[_eventId].url;\n  creator = eventList[_eventId].creator;\n  return (eventName, eventId, price, capacity, totalAttendees, state, url, creator);\n  }\n\n  /// @notice For booking a ticket for an event\n  /// @param _eventId the id of the event to book ticket for\n  function buyEventTicket(uint256 _eventId) public payable isTicketAvailable(_eventId) paidEnough(_eventId) checkValue(_eventId) {\n  escrow.deposit{value: eventList[_eventId].price}(eventList[_eventId].creator);\n  eventList[_eventId].attendees[msg.sender] = true;\n  eventList[_eventId].totalAttendees += 1;\n  emit LogEventTicketPurchased(_eventId, msg.sender);\n  }\n\n  /// @notice Used to know if an attendee has bought a ticket\n  /// @param _eventId the id of the event to check\n  /// @param _attendee the address  of the attendee to confirm\n  function getAttendeeTicketStatus(uint256 _eventId, address _attendee) public view returns (bool) {\n    return eventList[_eventId].attendees[_attendee];\n  }\n\n  /// @notice Allows event creator to see the accumulated amounts for tickets sold\n  /// @return uint256 the amount accrued so far\n  function escrowBalance() external view returns (uint256) {\n    return escrow.depositsOf(msg.sender);\n  }\n\n  /// @notice Allows event creator to withdraw the accumulated amounts for tickets sold\n  function withdrawFromEscrow() external hasDeposits {\n    escrow.withdraw(payable(msg.sender));\n  }\n\n}\n",
  "sourcePath": "/home/vic/consensys/blockchain-developer-bootcamp-final-project/contracts/EventTicketing.sol",
  "compiler": {
    "name": "solc",
    "version": "0.8.10+commit.fc410830.Emscripten.clang"
  },
  "schemaVersion": "3.4.3",
  "updatedAt": "2021-11-29T18:22:41.399Z",
  "networkType": "ethereum",
  "devdoc": {
    "author": "Victor Adeleke",
    "events": {
      "LogEventAdded(uint256,address)": {
        "params": {
          "eventId": "Event's id",
          "organizer": "organizer's address"
        }
      },
      "LogEventStateUpdated(uint256)": {
        "params": {
          "eventId": "Event's id"
        }
      },
      "LogEventTicketPurchased(uint256,address)": {
        "params": {
          "attendee": "attendee's address",
          "eventId": "Event's id"
        }
      }
    },
    "kind": "dev",
    "methods": {
      "addEventModerator(uint256,address)": {
        "params": {
          "_eventId": "id of the event that will have a new moderator",
          "_moderator": "address of new moderator to be added"
        }
      },
      "addToEventList(uint256,uint256,string,string)": {
        "params": {
          "_capacity": "allowed capacity for event",
          "_eventName": "name of event being created",
          "_price": "cost of event ticket",
          "_url": "http link containing detailed info about event"
        }
      },
      "buyEventTicket(uint256)": {
        "params": {
          "_eventId": "the id of the event to book ticket for"
        }
      },
      "escrowBalance()": {
        "returns": {
          "_0": "uint256 the amount accrued so far"
        }
      },
      "getAttendeeTicketStatus(uint256,address)": {
        "params": {
          "_attendee": "the address  of the attendee to confirm",
          "_eventId": "the id of the event to check"
        }
      },
      "getEventInfo(uint256)": {
        "params": {
          "_eventId": "id of event to get info about"
        },
        "returns": {
          "capacity": "number of attendees registered attendees sofar",
          "creator": "the address of the account that created this event",
          "eventId": "id of event",
          "eventName": "name of event",
          "price": "cost of event ticket",
          "state": "the state of the event",
          "totalAttendees": "number of allowed attendees",
          "url": "http link containing detailed info about event"
        }
      },
      "getRoleAdmin(bytes32)": {
        "details": "Returns the admin role that controls `role`. See {grantRole} and {revokeRole}. To change a role's admin, use {_setRoleAdmin}."
      },
      "getTotalEventsCount()": {
        "returns": {
          "_0": "total number of events created so far."
        }
      },
      "grantRole(bytes32,address)": {
        "details": "Grants `role` to `account`. If `account` had not been already granted `role`, emits a {RoleGranted} event. Requirements: - the caller must have ``role``'s admin role."
      },
      "hasRole(bytes32,address)": {
        "details": "Returns `true` if `account` has been granted `role`."
      },
      "owner()": {
        "details": "Returns the address of the current owner."
      },
      "renounceOwnership()": {
        "details": "Leaves the contract without owner. It will not be possible to call `onlyOwner` functions anymore. Can only be called by the current owner. NOTE: Renouncing ownership will leave the contract without an owner, thereby removing any functionality that is only available to the owner."
      },
      "renounceRole(bytes32,address)": {
        "details": "Revokes `role` from the calling account. Roles are often managed via {grantRole} and {revokeRole}: this function's purpose is to provide a mechanism for accounts to lose their privileges if they are compromised (such as when a trusted device is misplaced). If the calling account had been revoked `role`, emits a {RoleRevoked} event. Requirements: - the caller must be `account`."
      },
      "revokeRole(bytes32,address)": {
        "details": "Revokes `role` from `account`. If `account` had been granted `role`, emits a {RoleRevoked} event. Requirements: - the caller must have ``role``'s admin role."
      },
      "supportsInterface(bytes4)": {
        "details": "See {IERC165-supportsInterface}."
      },
      "transferOwnership(address)": {
        "details": "Transfers ownership of the contract to a new account (`newOwner`). Can only be called by the current owner."
      },
      "updateEventState(uint256)": {
        "params": {
          "_eventId": "id of the event to be updated"
        }
      }
    },
    "stateVariables": {
      "escrow": {
        "details": "creates an instance of excrow"
      },
      "eventsCounter": {
        "details": "Keeps count of events."
      }
    },
    "title": "Contract for decentralized event ticketing",
    "version": 1
  },
  "userdoc": {
    "events": {
      "LogEventAdded(uint256,address)": {
        "notice": "Emitted when an organizer creates an event."
      },
      "LogEventStateUpdated(uint256)": {
        "notice": "Emitted when a moderator updates the state of an event"
      },
      "LogEventTicketPurchased(uint256,address)": {
        "notice": "Emitted when an attendee purchases an event ticket."
      }
    },
    "kind": "user",
    "methods": {
      "addEventModerator(uint256,address)": {
        "notice": "add an event info"
      },
      "addToEventList(uint256,uint256,string,string)": {
        "notice": "add an event info"
      },
      "buyEventTicket(uint256)": {
        "notice": "For booking a ticket for an event"
      },
      "escrowBalance()": {
        "notice": "Allows event creator to see the accumulated amounts for tickets sold"
      },
      "getAttendeeTicketStatus(uint256,address)": {
        "notice": "Used to know if an attendee has bought a ticket"
      },
      "getEventInfo(uint256)": {
        "notice": "get info about a particular event"
      },
      "getTotalEventsCount()": {
        "notice": "To know the total number of events created through this contract"
      },
      "updateEventState(uint256)": {
        "notice": "update an event state"
      },
      "withdrawFromEscrow()": {
        "notice": "Allows event creator to withdraw the accumulated amounts for tickets sold"
      }
    },
    "notice": "Allows event organizer(s) to sell event tickets.",
    "version": 1
  }
}